:020000040800F2
:1000000000000120D9020008290300082903000884
:100010002903000829030008290300080000000044
:10002000000000000000000000000000290300089C
:100030002903000800000000290300082903000824
:1000400029030008290300082903000829030008E0
:1000500029030008290300082903000829030008D0
:1000600029030008290300082903000829030008C0
:1000700029030008290300082903000829030008B0
:1000800029030008290300082903000800000000D4
:10009000000000000000000000000000290300082C
:1000A0002903000829030008290300082903000880
:1000B0002903000829030008290300082903000870
:1000C0002903000829030008290300082903000860
:1000D0002903000829030008290300080000000084
:1000E0002903000829030008290300080000000074
:1000F00000000000000000000000000029030008CC
:100100000000000029030008290300082903000853
:1001100000000000000000000000000000000000DF
:1001200029030008290300082903000829030008FF
:10013000290300080000000000000000000000008B
:10014000000000000000000000000000290300087B
:1001500029030008290300082903000829030008CF
:100160002903000829030008000000000000000027
:10017000000000000000000000000000000000007F
:10018000000000002903000800000000000000003B
:040190002903000837
:1001940010B5054C237833B9044B13B10448AFF3BD
:1001A40000800123237010BD000000200000000027
:1001B4007806000808B5034B1BB103490348AFF3A5
:1001C400008008BD0000000004000020780600083C
:1001D40080B485B000AF78600023FB6002E0FB6868
:1001E4000133FB60FA687B689A42F8DB00BF00BF0A
:1001F4001437BD465DF8047B704780B582B000AF0C
:1002040000237B6000233B60002300220321422063
:1002140000F08AF8002301220521422000F084F82E
:10022400002301220621422000F07EF8002301224F
:100234000721422000F078F80321422000F0C8F999
:1002440003463B6042F21070FFF7C2FF03214220D5
:1002540000F0BEF903463B603B68002B23D17B686A
:1002640001337B607B6803F001031A4605214220B9
:1002740000F03CF97B685B0803F001031A46062191
:10028400422000F033F97B689B0803F001031A460F
:100294000721422000F02AF905E00321422000F062
:1002A40097F903463B603B68002BF6D0C4E7000097
:1002B40080B400AF064BD3F88830054A43F470038A
:1002C400C2F8883000BFBD465DF8047B704700BFAC
:1002D40000ED00E0DFF834D00D480E490E4A00234B
:1002E40002E0D458C4500433C4188C42F9D30B4AE6
:1002F4000B4C002301E013600432A242FBD3FFF74E
:10030400D7FF00F093F9FFF778FF70470000012052
:1003140000000020000000209806000800000020D3
:100324001C000020FEE7000080B485B000AFB96077
:100334007A603B600346FB73FB7B412B02D0422B6C
:1003440064D0C7E0664B1B6B654A43F0010313633B
:100354007B68032B3BD801A252F823F071030008F9
:100364008B030008A3030008BB0300085D4B1B6854
:10037400BA685200032101FA02F2D2431146594AE3
:100384000B40136023E0574B1B68BA6852000121ED
:1003940001FA02F21146534A0B43136017E0514B22
:1003A4001B68BA685200022101FA02F211464D4A52
:1003B4000B4313600BE04B4B1B68BA6852000321DC
:1003C40001FA02F21146474A0B43136000BF3B682F
:1003D400002B03D03B68012B0CD07BE0414B5B68C6
:1003E4000121BA6801FA02F2D24311463D4A0B4098
:1003F40053600AE03B4B5B680121BA6801FA02F2E0
:100404001146384A0B43536000BF63E0344B1B6B07
:10041400334A43F0020313637B68032B3BD801A2E6
:1004240052F823F039040008530400086B04000850
:10043400830400082C4B1B68BA685200032101FA9C
:1004440002F2D2431146284A0B40136023E0264BA4
:100454001B68BA685200012101FA02F21146224ACD
:100464000B43136017E0204B1B68BA68520002214B
:1004740001FA02F211461C4A0B4313600BE01A4BBB
:100484001B68BA685200032101FA02F21146164AA7
:100494000B43136000BF3B68002B03D03B68012B68
:1004A4000CD016E0104B5B680121BA6801FA02F225
:1004B400D24311460C4A0B4053600AE00A4B5B6876
:1004C4000121BA6801FA02F21146074A0B4353604C
:1004D40000BF00BF00BF1437BD465DF8047B704702
:1004E40000380240000002400004024080B487B09B
:1004F40000AF0346B9607A60FB73FB7B412B02D0EB
:10050400422B2DD059E0304B1B68BA6852000321AE
:1005140001FA02F21A40BB685B0022FA03F3012BD2
:100524001BD17B68002B0AD0274B5B690121BA6879
:1005340001FA02F21146244A0B4353610AE0224BAA
:100544005B690121BA6801FA02F2D24311461E4ADC
:100554000B4053610023FB752FE00123FB752CE056
:100564001A4B1B68BA685200012101FA02F21A40C0
:10057400BB685B0022FA03F3002B1BD07B68002BC3
:100584000AD0124B5B690121BA6801FA02F21146E2
:100594000E4A0B4353610AE00C4B5B690121BA68B4
:1005A40001FA02F2D2431146084A0B405361002378
:1005B400FB7501E00123FB7500BFFB7D18461C376A
:1005C400BD465DF8047B7047000002400004024011
:1005D40080B485B000AF03463960FB71FB79412BD1
:1005E40002D0422B0BD015E00E4B1B6901213A6857
:1005F40001FA02F21A403B6822FA03F3FB730A4B36
:100604001B6901213A6801FA02F21A403B6822FA96
:1006140003F3FB73FB7B18461437BD465DF8047B7C
:10062400704700BF000002400004024070B50D4D49
:100634000D4C641BA4100026A64209D10B4D0C4C92
:1006440000F018F8641BA4100026A64205D170BD62
:1006540055F8043B98470136EEE755F8043B9847B4
:100664000136F2E79006000890060008900600089C
:1006740094060008F8B500BFF8BC08BC9E46704755
:0C068400F8B500BFF8BC08BC9E467047EB
:04069000B9010008A4
:0406940095010008C4
:04000005080002D914
:00000001FF
