:020000040800F2
:1000000000000120AD060008FD060008FD060008FE
:10001000FD060008FD060008FD06000800000000BF
:10002000000000000000000000000000FD060008C5
:10003000FD06000800000000FD060008FD0600089F
:10004000FD060008FD060008FD060008FD06000884
:10005000FD060008FD06000899050008F5050008E2
:10006000FD060008FD060008FD060008FD06000864
:10007000FD060008FD060008FD060008FD06000854
:10008000FD060008FD060008FD060008000000004F
:10009000000000000000000000000000FD06000855
:1000A000FD060008FD060008FD060008FD06000824
:1000B000FD060008FD060008FD060008FD06000814
:1000C000FD060008FD060008FD060008FD06000804
:1000D000FD060008FD060008FD06000800000000FF
:1000E000FD060008FD060008FD06000800000000EF
:1000F000000000000000000000000000FD060008F5
:1001000000000000FD060008FD060008FD060008CE
:1001100000000000000000000000000000000000DF
:10012000FD060008FD060008FD060008FD060008A3
:10013000FD060008000000000000000000000000B4
:10014000000000000000000000000000FD060008A4
:10015000FD060008FD060008FD060008FD06000873
:10016000FD060008FD060008000000000000000079
:10017000000000000000000000000000000000007F
:1001800000000000FD060008000000000000000064
:04019000FD06000860
:1001940010B5054C237833B9044B13B10448AFF3BD
:1001A40000800123237010BD5C00002000000000CB
:1001B4004807000808B5034B1BB103490348AFF3D4
:1001C400008008BD0000000060000020480700080F
:1001D40080B483B000AF0346FB71084B1B68FA7907
:1001E400012101FA02F21146044A0B43136000BFD5
:1001F4000C37BD465DF8047B704700BF30380240C1
:1002040090B482B000AF0446084611461A4623460D
:10021400FB710346BB710B467B7113463B71FA7944
:10022400564913469B001344DB000B441B681968B2
:10023400BB795B00032202FA03F3DB431C46FA7921
:100244004E4813469B001344DB0003441B6801EA39
:1002540004021A60FA79494913469B001344DB00EF
:100264000B441B6819687A79BB795B0002FA03F3C3
:100274001C46FA79414813469B001344DB000344AF
:100284001B6841EA04021A60FA793C4913469B0050
:100294001344DB000B4404331B681968BB79012247
:1002A40002FA03F3DB431C46FA79344813469B00F5
:1002B4001344DB00034404331B6801EA04021A609C
:1002C400FA792E4913469B001344DB000B44043394
:1002D4001B6819683B7903F00102BB7902FA03F346
:1002E4001C46FA79254813469B001344DB0003445B
:1002F40004331B6841EA04021A60FA791F49134661
:100304009B001344DB000B440C331B681968BB7956
:100314005B00032202FA03F3DB431C46FA79174815
:1003240013469B001344DB0003440C331B6801EAAF
:1003340004021A60FA79114913469B001344DB0046
:100344000B440C331B6819683B795B1003F0030200
:10035400BB795B0002FA03F31C46FA79074813469B
:100364009B001344DB0003440C331B6841EA040282
:100374001A6000BF0837BD4690BC704700000020DB
:1003840090B484B000AF0346FB710B46BB711346B7
:100394007B71FA792C4913469B001344DB000B4410
:1003A4001B681B68BA795200032101FA02F21A4051
:1003B400BB795B0022FA03F3012B3DD17B79002B3F
:1003C4001BD0FA79204913469B001344DB000B44ED
:1003D40014331B681968BB79012202FA03F31C4623
:1003E400FA79194813469B001344DB000344143381
:1003F4001B6841EA04021A601BE0FA7912491346A9
:100404009B001344DB000B4414331B681968BB794D
:10041400012202FA03F3DB431C46FA790A48134625
:100424009B001344DB00034414331B6801EA0402F9
:100434001A600023FB7301E00123FB73FB7B184666
:100444001037BD4690BC70470000002080B400AF58
:10045400054B1B68044A43F48043136000BFBD4648
:100464005DF8047B704700BF4438024080B483B019
:1004740000AF0346FB71154B1B68FA790F2101FA93
:1004840002F2D2431146114A0B401360104B1B6811
:10049400FA79012101FA02F211460D4A0B43136065
:1004A4000C4B1B68FA79012101FA02F21146094A40
:1004B4000B431360FB79063301229A40064B1A6002
:1004C40000BF0C37BD465DF8047B70470838014017
:1004D4000C3C0140003C014000E100E080B582B0EA
:1004E40000AF0020FFF774FE022300220021002049
:1004F400FFF786FE0223002201210020FFF780FE81
:10050400FFF7A4FF0020FFF7B1FF0120FFF7AEFFC4
:1005140000F09EF81B4B1B681A4A43F080031360DB
:10052400184B1B68174A43F040031360164B1B78A3
:10053400BB71164B1B68154A43F040031360134B01
:100544001B68124A43F0800313600023FB7115E01B
:10055400BB790F4AD35C1946FB79012202FA03F3F3
:1005640001EA0302FB7942FA03F3DAB2FB79194692
:100574000120FFF705FFFB790133FB71FB79062BA3
:10058400E6D9C7E780E200E07800002000E100E05F
:100594005000002080B400AF114B1B68104A43F098
:1005A400800313600F4B1B780133DAB20D4B1A70C2
:1005B4000C4B1B78092B02D90A4B00221A700A4BE8
:1005C4001B68094A43F080031360084B1B68074A01
:1005D40043F00103136000BFBD465DF8047B704720
:1005E40080E200E07800002000E100E0143C0140DB
:1005F40080B400AF124B1B68114A43F040031360F0
:10060400104B1B78002B03D10E4B09221A7005E006
:100614000C4B1B78013BDAB20A4B1A700A4B1B686D
:10062400094A43F040031360084B1B68074A43F030
:100634000203136000BFBD465DF8047B704700BF32
:1006440080E200E07800002000E100E0143C01407A
:1006540080B582B000AF0023FB710120FFF7B8FD25
:1006640008E0F979002301220120FFF7C9FDFB7995
:100674000133FB71FB79062BF3D900BF00BF0837A8
:10068400BD4680BD80B400AF064BD3F88830054A20
:1006940043F47003C2F8883000BFBD465DF8047BA4
:1006A400704700BF00ED00E0DFF834D00D480E497C
:1006B4000E4A002302E0D458C4500433C4188C42B8
:1006C400F9D30B4A0B4C002301E013600432A2421D
:1006D400FBD3FFF7D7FF00F011F8FFF7FFFE7047D9
:1006E40000000120000000205C00002068070008D2
:1006F4005C0000207C000020FEE7000070B50D4D7A
:100704000D4C641BA4100026A64209D10B4D0C4CC1
:1007140000F018F8641BA4100026A64205D170BD91
:1007240055F8043B98470136EEE755F8043B9847E3
:100734000136F2E760070008600700086007000858
:1007440064070008F8B500BFF8BC08BC9E467047B3
:0C075400F8B500BFF8BC08BC9E4670471A
:04076000B9010008D3
:0407640095010008F3
:100768000000024004000240080002400C00024061
:100778001000024014000240180002401C00024011
:100788002000024024000240000402400404024009
:10079800080402400C040240100402401404024001
:1007A800180402401C0402402004024024040240B1
:0C07B8003F065B4F666D7D077F6F000001
:04000005080006AD3C
:00000001FF
