:020000040800F2
:100000000000012071020008C1020008C1020008BE
:10001000C1020008C1020008C1020008000000007F
:10002000000000000000000000000000C102000805
:10003000C102000800000000C1020008C10200085F
:10004000C1020008C1020008C1020008C102000884
:10005000C1020008C1020008C1020008C102000874
:10006000C1020008C1020008C1020008C102000864
:10007000C1020008C1020008C1020008C102000854
:10008000C1020008C1020008C1020008000000000F
:10009000000000000000000000000000C102000895
:1000A000C1020008C1020008C1020008C102000824
:1000B000C1020008C1020008C1020008C102000814
:1000C000C1020008C1020008C1020008C102000804
:1000D000C1020008C1020008C102000800000000BF
:1000E000C1020008C1020008C102000800000000AF
:1000F000000000000000000000000000C102000835
:1001000000000000C1020008C1020008C10200088E
:1001100000000000000000000000000000000000DF
:10012000C1020008C1020008C1020008C1020008A3
:10013000C1020008000000000000000000000000F4
:10014000000000000000000000000000C1020008E4
:10015000C1020008C1020008C1020008C102000873
:10016000C1020008C10200080000000000000000F9
:10017000000000000000000000000000000000007F
:1001800000000000C10200080000000000000000A4
:04019000C1020008A0
:1001940010B5054C237833B9044B13B10448AFF3BD
:1001A40000800123237010BD000000200000000027
:1001B4000C03000808B5034B1BB103490348AFF314
:1001C400008008BD00000000040000200C030008AB
:1001D40080B483B000AF194B1B6B184A43F0010382
:1001E4001363174B1B68164A43F001031360144B47
:1001F4005B68134A23F001035360114B5B69104A97
:1002040043F00103536100237B6002E07B68013308
:100214007B607B680B4A9342F8DD094B5B69084AB3
:1002240023F00103536100233B6002E03B68013388
:100234003B603B68034A9342F8DDDEE70038024046
:10024400000002403F420F0080B400AF064BD3F8D9
:100254008830054A43F47003C2F8883000BFBD46B5
:100264005DF8047B704700BF00ED00E0DFF834D098
:100274000D480E490E4A002302E0D458C4500433FA
:10028400C4188C42F9D30B4A0B4C002301E01360D1
:100294000432A242FBD3FFF7D7FF00F011F8FFF7B7
:1002A40097FF70470000012000000020000000209C
:1002B4002C030008000000201C000020FEE70000C2
:1002C40070B50D4D0D4C641BA4100026A64209D137
:1002D4000B4D0C4C00F018F8641BA4100026A64229
:1002E40005D170BD55F8043B98470136EEE755F843
:1002F400043B98470136F2E724030008240300086E
:100304002403000828030008F8B500BFF8BC08BCA3
:100314009E467047F8B500BFF8BC08BC9E467047BF
:04032400B901000813
:040328009501000833
:04000005080002717C
:00000001FF
