:020000040800F2
:1000000000000120F5070008450800084508000821
:1000100045080008450800084508000800000000E1
:10002000000000000000000000000000450800087B
:1000300045080008000000004508000845080008C1
:10004000450800084508000845080008450800085C
:10005000450800084508000845080008450800084C
:10006000450800084508000845080008450800083C
:10007000450800084508000845080008450800082C
:100080004508000845080008450800080000000071
:10009000000000000000000000000000450800080B
:1000A00045080008450800084508000845080008FC
:1000B00045080008450800084508000845080008EC
:1000C00045080008450800084508000845080008DC
:1000D0004508000845080008450800080000000021
:1000E0004508000845080008450800080000000011
:1000F00000000000000000000000000045080008AB
:1001000000000000450800084508000845080008F0
:1001100000000000000000000000000000000000DF
:10012000450800084508000845080008450800087B
:10013000450800080000000000000000000000006A
:10014000000000000000000000000000450800085A
:10015000450800084508000845080008450800084B
:1001600045080008450800080000000000000000E5
:10017000000000000000000000000000000000007F
:10018000000000004508000800000000000000001A
:040190004508000816
:1001940010B5054C237833B9044B13B10448AFF3BD
:1001A40000800123237010BD000000200000000027
:1001B400380B000808B5034B1BB103490348AFF3E0
:1001C400008008BD0000000004000020380B000877
:1001D40080B596B000AF002301220021412000F039
:1001E40031FB002301220121412000F02BFB0023DD
:1001F40001220221412000F025FB002301220321DA
:10020400412000F01FFB002301220421412000F0C3
:1002140019FB002301220521412000F013FB0023D8
:1002240001220621412000F00DFB002301220721B9
:10023400412000F007FB01220021412000F0E4FBF3
:1002440001220121412000F0DFFB01220221412093
:1002540000F0DAFB01220321412000F0D5FB01224A
:100264000421412000F0D0FB01220521412000F0AF
:10027400CBFB00237B6502E07B6D01337B657B6DEB
:10028400C04A9342F8DD00220021412000F0BCFB6B
:1002940000220121412000F0B7FB0022022141206D
:1002A40000F0B2FB00220321412000F0ADFB00224C
:1002B4000421412000F0A8FB00220521412000F088
:1002C400A3FB00233B6502E03B6D01333B653B6DC3
:1002D400AC4A9342F8DD01220121412000F094FB55
:1002E40001220221412000F08FFB0023FB6402E085
:1002F400FB6C0133FB64FB6CA24A9342F8DD0022E1
:100304000121412000F080FB00220221412000F065
:100314007BFB0023BB6402E0BB6C0133BB64BB6C9E
:10032400984A9342F8DD01220021412000F06CFB41
:1003340001220121412000F067FB01220321412019
:1003440000F062FB01220421412000F05DFB012248
:100354000621412000F058FB00237B6402E07B6C03
:1003640001337B647B6C874A9342F8DD00220021D1
:10037400412000F049FB00220121412000F044FB10
:1003840000220321412000F03FFB002204214120F0
:1003940000F03AFB00220621412000F035FB002347
:1003A4003B6402E03B6C01333B643B6C754A934213
:1003B400F8DD01220021412000F026FB0122012169
:1003C400412000F021FB01220221412000F01CFB0E
:1003D40001220321412000F017FB012206214120C4
:1003E40000F012FB0023FB6302E0FB6B0133FB63B1
:1003F400FB6B644A9342F8DD00220021412000F0A7
:1004040003FB00220121412000F0FEFA0022022118
:10041400412000F0F9FA00220321412000F0F4FA0F
:1004240000220621412000F0EFFA0023BB6302E022
:10043400BB6B0133BB63BB6B524A9342F8DD0122B1
:100444000121412000F0E0FA01220221412000F0C4
:10045400DBFA01220521412000F0D6FA012206210F
:10046400412000F0D1FA00237B6302E07B6B01336F
:100474007B637B6B434A9342F8DD002201214120D8
:1004840000F0C2FA00220221412000F0BDFA00224D
:100494000521412000F0B8FA00220621412000F095
:1004A400B3FA00233B6302E03B6B01333B633B6BDA
:1004B400344A9342F8DD01220021412000F0A4FADD
:1004C40001220221412000F09FFA01220321412050
:1004D40000F09AFA01220521412000F095FA012248
:1004E4000621412000F090FA0023FB6202E0FB6A3F
:1004F4000133FB62FB6A234A9342F8DD00220021A8
:10050400412000F081FA00220221412000F07CFA0F
:1005140000220321412000F077FA00220521412026
:1005240000F072FA00220621412000F06DFA002347
:10053400BB6202E0BB6A0133BB62BB6A114A9342ED
:10054400F8DD01220021412000F05EFA012202219F
:10055400412000F059FA01220321412000F054FA0D
:1005640001220421412000F04FFA012205214120FB
:1005740000F04AFA01220621412000F045FA002346
:100584007B6204E03F420F007B6A01337B627B6A3B
:100594008D4A9342F8DD00220021412000F034FA14
:1005A40000220221412000F02FFA002203214120E1
:1005B40000F02AFA00220421412000F025FA00224A
:1005C4000521412000F020FA00220621412000F0FC
:1005D4001BFA00233B6202E03B6A01333B623B6A45
:1005E400794A9342F8DD01220021412000F00CFAFF
:1005F40001220121412000F007FA012202214120B9
:1006040000F002FA0023FB6102E0FB690133FB61A5
:10061400FB696D4A9342F8DD00220021412000F07D
:10062400F3F900220121412000F0EEF90022022119
:10063400412000F0E9F90023BB6102E0BB6901330A
:10064400BB61BB69604A9342F8DD0122002141206D
:1006540000F0DAF901220121412000F0D5F901224C
:100664000221412000F0D0F901220321412000F0B1
:10067400CBF901220421412000F0C6F90122052111
:10068400412000F0C1F901220621412000F0BCF90B
:1006940001220721412000F0B7F900237B6102E029
:1006A4007B6901337B617B69474A9342F8DD002211
:1006B4000021412000F0A8F900220121412000F08E
:1006C400A3F900220221412000F09EF90022032117
:1006D400412000F099F900220421412000F094F90E
:1006E40000220521412000F08FF90022062141203B
:1006F40000F08AF900220721412000F085F9002347
:100704003B6102E03B6901333B613B692E4A934202
:10071400F8DD0023FB6002E0FB680133FB60FB684B
:10072400294A9342F8DD01220021412000F06CF9AE
:1007340001220121412000F067F901220221412018
:1007440000F062F901220321412000F05DF9012249
:100754000521412000F058F901220621412000F032
:1007640053F90023BB6002E0BB680133BB60BB6884
:10077400154A9342F8DD00220021412000F044F99B
:1007840000220121412000F03FF9002202214120F2
:1007940000F03AF900220321412000F035F900224B
:1007A4000521412000F030F900220621412000F00B
:1007B4002BF900237B6002E07B6801337B607B685C
:1007C400014A9342F8DD36E53F420F0080B400AFA2
:1007D400064BD3F88830054A43F47003C2F88830D6
:1007E40000BFBD465DF8047B704700BF00ED00E02C
:1007F400DFF834D00D480E490E4A002302E0D458E5
:10080400C4500433C4188C42F9D30B4A0B4C002354
:1008140001E013600432A242FBD3FFF7D7FF00F0DC
:1008240065F9FFF7D5FC70470000012000000020A7
:1008340000000020580B0008000000201C000020CD
:10084400FEE7000080B485B000AFB9607A603B6019
:100854000346FB73FB7B412B02D0422B64D0C7E0E1
:10086400664B1B6B654A43F0010313637B68032BE0
:100874003BD801A252F823F08D080008A70800080D
:10088400BF080008D70800085D4B1B68BA6852000F
:10089400032101FA02F2D2431146594A0B40136074
:1008A40023E0574B1B68BA685200012101FA02F297
:1008B4001146534A0B43136017E0514B1B68BA6847
:1008C4005200022101FA02F211464D4A0B43136011
:1008D4000BE04B4B1B68BA685200032101FA02F289
:1008E4001146474A0B43136000BF3B68002B03D0FB
:1008F4003B68012B0CD07BE0414B5B680121BA685B
:1009040001FA02F2D24311463D4A0B4053600AE019
:100914003B4B5B680121BA6801FA02F21146384A7E
:100924000B43536000BF63E0344B1B6B334A43F00B
:10093400020313637B68032B3BD801A252F823F014
:10094400550900086F090008870900089F09000875
:100954002C4B1B68BA685200032101FA02F2D243FD
:100964001146284A0B40136023E0264B1B68BA68E3
:100974005200012101FA02F21146224A0B4313608C
:1009840017E0204B1B68BA685200022101FA02F2F8
:1009940011461C4A0B4313600BE01A4B1B68BA68E0
:1009A4005200032101FA02F21146164A0B43136066
:1009B40000BF3B68002B03D03B68012B0CD016E032
:1009C400104B5B680121BA6801FA02F2D243114666
:1009D4000C4A0B4053600AE00A4B5B680121BA6879
:1009E40001FA02F21146074A0B43536000BF00BFED
:1009F40000BF1437BD465DF8047B704700380240E1
:100A0400000002400004024080B487B000AF0346F7
:100A1400B9607A60FB73FB7B412B02D0422B2DD053
:100A240059E0304B1B68BA685200032101FA02F204
:100A34001A40BB685B0022FA03F3012B1BD17B68CD
:100A4400002B0AD0274B5B690121BA6801FA02F234
:100A54001146244A0B4353610AE0224B5B6901218E
:100A6400BA6801FA02F2D24311461E4A0B4053619E
:100A74000023FB752FE00123FB752CE01A4B1B6848
:100A8400BA685200012101FA02F21A40BB685B0005
:100A940022FA03F3002B1BD07B68002B0AD0124BE5
:100AA4005B690121BA6801FA02F211460E4A0B434E
:100AB40053610AE00C4B5B690121BA6801FA02F246
:100AC400D2431146084A0B4053610023FB7501E0F1
:100AD4000123FB7500BFFB7D18461C37BD465DF83E
:100AE400047B7047000002400004024070B50D4DC5
:100AF4000D4C641BA4100026A64209D10B4D0C4CCE
:100B040000F018F8641BA4100026A64205D170BD9D
:100B140055F8043B98470136EEE755F8043B9847EF
:100B24000136F2E7500B0008500B0008500B000888
:100B3400540B0008F8B500BFF8BC08BC9E467047CB
:0C0B4400F8B500BFF8BC08BC9E46704726
:040B5000B9010008DF
:040B540095010008FF
:04000005080007F5F3
:00000001FF
