:020000040800F2
:100000000000012091050008E1050008E105000855
:10001000E1050008E1050008E10500080000000016
:10002000000000000000000000000000E1050008E2
:10003000E105000800000000E1050008E1050008F6
:10004000E1050008E1050008E1050008E1050008F8
:10005000E1050008E1050008E10500083105000898
:10006000E1050008E1050008E1050008E1050008D8
:10007000E1050008E1050008E1050008E1050008C8
:10008000E1050008E1050008E105000800000000A6
:10009000000000000000000000000000E105000872
:1000A000E1050008E1050008E1050008E105000898
:1000B000E1050008E1050008E1050008E105000888
:1000C000E1050008E1050008E1050008E105000878
:1000D000E1050008E1050008E10500080000000056
:1000E000E1050008E1050008E10500080000000046
:1000F000000000000000000000000000E105000812
:1001000000000000E1050008E1050008E105000825
:1001100000000000000000000000000000000000DF
:10012000E1050008E1050008E1050008E105000817
:10013000E1050008000000000000000000000000D1
:10014000000000000000000000000000E1050008C1
:10015000E1050008E1050008E1050008E1050008E7
:10016000E1050008E10500080000000000000000B3
:10017000000000000000000000000000000000007F
:1001800000000000E1050008000000000000000081
:04019000E10500087D
:1001940010B5054C237833B9044B13B10448AFF3BD
:1001A40000800123237010BD5400002000000000D3
:1001B4002C06000808B5034B1BB103490348AFF3F1
:1001C400008008BD00000000580000202C06000834
:1001D40080B483B000AF0346FB71094B1B681A68F7
:1001E400FB79012101FA03F31946054B1B680A4305
:1001F4001A6000BF0C37BD465DF8047B704700BF32
:100204005000002090B482B000AF04460846114666
:100214001A462346FB710346BB710B467B7113469A
:100224003B71FA79564913469B001344DB000B4497
:100234001B681968BB795B00032202FA03F3DB43F2
:100244001C46FA794E4813469B001344DB000344D2
:100254001B6801EA04021A60FA79494913469B00B3
:100264001344DB000B441B6819687A79BB795B0083
:1002740002FA03F31C46FA79414813469B001344DF
:10028400DB0003441B6841EA04021A60FA793C4922
:1002940013469B001344DB000B4404331B681968AA
:1002A400BB79012202FA03F3DB431C46FA79344892
:1002B40013469B001344DB00034404331B6801EA28
:1002C40004021A60FA792E4913469B001344DB009A
:1002D4000B4404331B6819683B7903F00102BB79B2
:1002E40002FA03F31C46FA79254813469B0013448B
:1002F400DB00034404331B6841EA04021A60FA7900
:100304001F4913469B001344DB000B440C331B684A
:100314001968BB795B00032202FA03F3DB431C4632
:10032400FA79174813469B001344DB0003440C334B
:100334001B6801EA04021A60FA79114913469B000A
:100344001344DB000B440C331B6819683B795B10C6
:1003540003F00302BB795B0002FA03F31C46FA794B
:10036400074813469B001344DB0003440C331B680B
:1003740041EA04021A6000BF0837BD4690BC7047CA
:100384000000002090B484B000AF0346FB710B461C
:10039400BB7113467B71FA792C4913469B001344B5
:1003A400DB000B441B681B68BA795200032101FA75
:1003B40002F21A40BB795B0022FA03F3012B3DD110
:1003C4007B79002B1BD0FA79204913469B001344F8
:1003D400DB000B4414331B681968BB79012202FA51
:1003E40003F31C46FA79194813469B001344DB00B7
:1003F400034414331B6841EA04021A601BE0FA79CF
:10040400124913469B001344DB000B4414331B684E
:100414001968BB79012202FA03F3DB431C46FA791B
:100424000A4813469B001344DB00034414331B683F
:1004340001EA04021A600023FB7301E00123FB7349
:10044400FB7B18461037BD4690BC70470000002067
:1004540080B485B000AF03460A46FB711346BB71F6
:100464000023FB73FA790C4913469B001344DB0009
:100474000B4410331B681B68BA79012101FA02F29C
:100484001A40BB7922FA03F3FB73FB7B184614373B
:10049400BD465DF8047B70470000002080B500AFC6
:1004A4000020FFF795FE0023012200210020FFF722
:1004B400A9FE0223002201210020FFF7A3FE00224F
:1004C40000210020FFF75EFF124B1B68114A43F422
:1004D40080431360104B1B680F4A23F0F003136032
:1004E4000E4B1B680D4A43F0020313600C4B1B6850
:1004F4000B4A43F0020313600A4B1B68094A23F0BA
:1005040002031360084B1B68074A43F0800313601F
:10051400FEE700BF4438024008380140003C014077
:100524000C3C0140083C014000E100E080B582B091
:1005340000AF00210020FFF78BFF034683F0010387
:10054400FB71FB791A4600210020FFF71BFF054BC6
:100554001B68044A43F00103136000BF0837BD461B
:1005640080BD00BF083C014080B400AF064BD3F807
:100574008830054A43F47003C2F8883000BFBD4692
:100584005DF8047B704700BF00ED00E0DFF834D075
:100594000D480E490E4A002302E0D458C4500433D7
:1005A400C4188C42F9D30B4A0B4C002301E01360AE
:1005B4000432A242FBD3FFF7D7FF00F011F8FFF794
:1005C4006DFF70470000012000000020540000204F
:1005D4004C0600085400002070000020FEE70000D4
:1005E40070B50D4D0D4C641BA4100026A64209D114
:1005F4000B4D0C4C00F018F8641BA4100026A64206
:1006040005D170BD55F8043B98470136EEE755F81F
:10061400043B98470136F2E7440600084406000804
:100624004406000848060008F8B500BFF8BC08BC3A
:100634009E467047F8B500BFF8BC08BC9E4670479C
:04064400B9010008F0
:040648009501000810
:10064C000000024004000240080002400C0002407E
:10065C001000024014000240180002401C0002402E
:10066C002000024024000240000402400404024026
:10067C00080402400C04024010040240140402401E
:10068C00180402401C0402402004024024040240CE
:04069C0030380240B0
:040000050800059159
:00000001FF
