:020000040800F2
:10000000000001200D0300085D0300085D030008E7
:100010005D0300085D0300085D03000800000000A8
:100020000000000000000000000000005D03000868
:100030005D030008000000005D0300085D03000888
:100040005D0300085D0300085D0300085D03000810
:100050005D0300085D0300085D0300085D03000800
:100060005D0300085D0300085D0300085D030008F0
:100070005D0300085D0300085D0300085D030008E0
:100080005D0300085D0300085D0300080000000038
:100090000000000000000000000000005D030008F8
:1000A0005D0300085D0300085D0300085D030008B0
:1000B0005D0300085D0300085D0300085D030008A0
:1000C0005D0300085D0300085D0300085D03000890
:1000D0005D0300085D0300085D03000800000000E8
:1000E0005D0300085D0300085D03000800000000D8
:1000F0000000000000000000000000005D03000898
:10010000000000005D0300085D0300085D030008B7
:1001100000000000000000000000000000000000DF
:100120005D0300085D0300085D0300085D0300082F
:100130005D03000800000000000000000000000057
:100140000000000000000000000000005D03000847
:100150005D0300085D0300085D0300085D030008FF
:100160005D0300085D0300080000000000000000BF
:10017000000000000000000000000000000000007F
:10018000000000005D030008000000000000000007
:040190005D03000803
:1001940010B5054C237833B9044B13B10448AFF3BD
:1001A40000800123237010BD040000200000000023
:1001B400A803000808B5034B1BB103490348AFF378
:1001C400008008BD0000000008000020A80300080B
:1001D40080B483B000AF78600A4B00221A6004E058
:1001E400084B1B680133074A1360064B1B687A6887
:1001F4009A42F5DA00BF00BF0C37BD465DF8047BB8
:10020400704700BF2400002080B582B000AF324B9D
:100214001B6B314A43F002031363304B1B682F4AB4
:1002240023F0400313602D4B1B682C4A23F4806396
:1002340013602A4B1B68294A23F480531360274B0D
:100244001B68264A23F480431360244B1B68234A0B
:1002540043F480631360214B1B68204A43F48053AA
:1002640013601E4B1B681D4A43F4804313601B4BF1
:100274005B681A4A23F0E0035360184B1B69DB08E0
:1002840003F001037B604FF47A70FFF7A1FF7B68F2
:10029400002BF2D0114B1B6903F00803002BECD1A7
:1002A4000E4B5B690D4A23F0E00353610B4B5B6912
:1002B4000B4A126852011146084A0B435361084B1A
:1002C4001B680133064A1360054B1B68062BD4DDFB
:1002D400034B01221A60D0E70038024000040240B8
:1002E4000000002080B400AF064BD3F88830054AE4
:1002F40043F47003C2F8883000BFBD465DF8047B48
:10030400704700BF00ED00E0DFF834D00D480E491F
:100314000E4A002302E0D458C4500433C4188C425B
:10032400F9D30B4A0B4C002301E013600432A242C0
:10033400FBD3FFF7D7FF00F011F8FFF765FF704715
:10034400000001200000002004000020C803000871
:100354000400002028000020FEE7000070B50D4DC9
:100364000D4C641BA4100026A64209D10B4D0C4C65
:1003740000F018F8641BA4100026A64205D170BD35
:1003840055F8043B98470136EEE755F8043B984787
:100394000136F2E7C0030008C0030008C0030008E8
:1003A400C4030008F8B500BFF8BC08BC9E467047FB
:0C03B400F8B500BFF8BC08BC9E467047BE
:0403C000B901000877
:0403C4009501000897
:0403C8000100000030
:040000050800030DDF
:00000001FF
