:020000040800F2
:1000000000000120FD0600084D0700084D0700080C
:100010004D0700084D0700084D07000800000000CC
:100020000000000000000000000000004D07000874
:100030004D070008000000004D0700084D070008AC
:100040004D0700084D0700084D0700084D07000840
:100050004D0700084D0700084D0700084D07000830
:100060004D0700084D0700084D0700084D07000820
:100070004D0700084D0700084D0700084D07000810
:100080004D0700084D0700084D070008000000005C
:100090000000000000000000000000004D07000804
:1000A0004D0700084D0700084D0700084D070008E0
:1000B0004D0700084D0700084D0700084D070008D0
:1000C0004D0700084D0700084D0700084D070008C0
:1000D0004D0700084D0700084D070008000000000C
:1000E0004D0700084D0700084D07000800000000FC
:1000F0000000000000000000000000004D070008A4
:10010000000000004D0700084D0700084D070008DB
:1001100000000000000000000000000000000000DF
:100120004D0700084D0700084D0700084D0700085F
:100130004D07000800000000000000000000000063
:100140000000000000000000000000004D07000853
:100150004D0700084D0700084D0700084D0700082F
:100160004D0700084D0700080000000000000000D7
:10017000000000000000000000000000000000007F
:10018000000000004D070008000000000000000013
:040190004D0700080F
:1001940010B5054C237833B9044B13B10448AFF3BD
:1001A40000800123237010BD1C000020000000000B
:1001B4009807000808B5034B1BB103490348AFF384
:1001C400008008BD000000002000002098070008FF
:1001D40080B483B000AF0346FB71FB79412B02D09E
:1001E400422B07D00DE00A4B1B6B094A43F0010375
:1001F400136306E0064B1B6B054A43F002031363CB
:1002040000BF00BF0C37BD465DF8047B704700BFDC
:100214000038024090B482B000AF0446084611464C
:100224001A462346FB710346BB710B467B7113468A
:100234003B71FB79412B02D0422B49D091E04B4BCF
:100244001B68BA795200032101FA02F2D243114623
:10025400464A0B401360454B1B687979BA795200C2
:1002640001FA02F21146414A0B4313603F4B5B68AB
:10027400BA79012101FA02F2D24311463B4A0B40FA
:1002840053603A4B5B683A7902F00101BA7901FA9A
:1002940002F21146354A0B435360344BDB68BA799A
:1002A4005200032101FA02F2D24311462F4A0B40B5
:1002B400D3602E4BDB683A79521002F00301BA790D
:1002C400520001FA02F21146284A0B43D36048E077
:1002D400274B1B68BA795200032101FA02F2D24378
:1002E4001146234A0B401360214B1B687979BA7974
:1002F400520001FA02F211461D4A0B4313601C4BD3
:100304005B68BA79012101FA02F2D2431146184A14
:100314000B405360164B5B683A7902F00101BA79DD
:1003240001FA02F21146124A0B435360104BDB6888
:10033400BA795200032101FA02F2D24311460C4A5F
:100344000B40D3600A4BDB683A79521002F0030188
:10035400BA79520001FA02F21146054A0B43D360FE
:1003640000BF00BF0837BD4690BC70470000024084
:100374000004024080B485B000AF0346FB710B4615
:10038400BB7113467B71FB79412B02D0422B2DD0DC
:1003940059E0324B1B68BA795200032101FA02F288
:1003A4001A40BB795B0022FA03F3012B1BD17B7942
:1003B400002B0AD0294B5B69BA79012101FA02F2B8
:1003C4001146264A0B4353610AE0244B5B69BA7910
:1003D400012101FA02F2D2431146204A0B40536133
:1003E4000023FB7332E00123FB732FE01C4B1B68DB
:1003F400BA795200032101FA02F21A40BB795B0078
:1004040022FA03F3012B1BD17B79002B0AD0144B66
:100414005B69BA79012101FA02F21146104A0B43D1
:1004240053610AE00E4B5B69BA79012101FA02F2C9
:10043400D24311460A4A0B4053610023FB7305E083
:100444000123FB7302E00123FB7300BFFB7B18460F
:100454001437BD465DF8047B704700BF00000240BE
:100464000004024080B485B000AF03460A46FB7125
:100474001346BB710023FB73FB79412B02D0422B43
:100484000CD017E00F4B1B69BA79012101FA02F273
:100494001A40BB7922FA03F3FB730BE00A4B1B6986
:1004A400BA79012101FA02F21A40BB7922FA03F364
:1004B400FB7300BFFB7B18461437BD465DF8047B15
:1004C400704700BF000002400004024080B582B0C3
:1004D40000AF4220FFF77CFE00237B6009E07B68CD
:1004E400D9B2002301224220FFF794FE7B68013336
:1004F4007B607B68022BF2DD03233B6009E03B68F1
:10050400D9B2022300224220FFF784FE3B68013364
:100514003B603B68062BF2DD00BF00BF0837BD46D9
:1005240080BD000080B400AF044B01221A70044B5C
:100534001B781846BD465DF8047B70470C0000200C
:100544003800002080B582B000AF264B1B78012B09
:1005540044D100237B603EE07B68DBB20022194675
:100564004220FFF707FF03233B6027E03B68DBB231
:1005740019464220FFF776FF0346002B1BD142F2B7
:10058400107000F035F83B68DBB219464220FFF7E3
:1005940069FF0346002B0ED13B68033B12497A687E
:1005A40092000A4413441A78104B1A700D4B00221F
:1005B4001A7000F053F83B6801333B603B68062B2C
:1005C400D4DD7B68DBB2012219464220FFF7D2FE5C
:1005D4007B6801337B607B68022BBDDD00BF08377D
:1005E400BD4680BD0C000020000000203800002023
:1005F40080B485B000AF78600023FB6002E0FB6844
:100604000133FB607B68FA689A42F8D300BF00BFED
:100614001437BD465DF8047B704780B582B000AFE7
:100624004120FFF7D5FD00237B6009E07B68D9B248
:10063400002301224120FFF7EDFD7B6801337B603D
:100644007B68062BF2DD0223002207214120FFF7FD
:10065400E1FDFFF73BFFFFF775FFFCE780B500AF57
:10066400FFF760FF03461A46044B1A70034B1B78CE
:10067400184600F005F800BF80BD00BF3900002017
:1006840080B584B000AF0346FB710023FB6016E025
:10069400FB68D9B2FB790E4AD35C18460122FB6889
:1006A40002FA03F300EA0302FB6842FA03F3DBB243
:1006B4001A464120FFF75EFEFB680133FB60FB68CE
:1006C400062BE5DD00BF00BF1037BD4680BD00BF6F
:1006D4001000002080B400AF064BD3F88830054AE0
:1006E40043F47003C2F8883000BFBD465DF8047B54
:1006F400704700BF00ED00E0DFF834D00D480E492C
:100704000E4A002302E0D458C4500433C4188C4267
:10071400F9D30B4A0B4C002301E013600432A242CC
:10072400FBD3FFF7D7FF00F011F8FFF776FF704710
:1007340000000120000000201C000020B807000871
:100744001C0000203C000020FEE7000070B50D4DA9
:100754000D4C641BA4100026A64209D10B4D0C4C71
:1007640000F018F8641BA4100026A64205D170BD41
:1007740055F8043B98470136EEE755F8043B984793
:100784000136F2E7B0070008B0070008B007000818
:10079400B4070008F8B500BFF8BC08BC9E46704713
:0C07A400F8B500BFF8BC08BC9E467047CA
:0407B000B901000883
:0407B40095010008A3
:1007B8000104072A020508000306092301000000B6
:0C07C8003F065B4F666D7D077F6F0000F1
:04000005080006FDEC
:00000001FF
