:020000040800F2
:1000000000000120C90600081907000819070008A8
:100010001907000819070008190700080000000068
:1000200000000000000000000000000019070008A8
:100030001907000800000000190700081907000848
:100040001907000819070008190700081907000810
:100050001907000819070008190700081907000800
:1000600019070008190700081907000819070008F0
:1000700019070008190700081907000819070008E0
:1000800019070008190700081907000800000000F8
:100090000000000000000000000000001907000838
:1000A00019070008190700081907000819070008B0
:1000B00019070008190700081907000819070008A0
:1000C0001907000819070008190700081907000890
:1000D00019070008190700081907000800000000A8
:1000E0001907000819070008190700080000000098
:1000F00000000000000000000000000019070008D8
:100100000000000019070008190700081907000877
:1001100000000000000000000000000000000000DF
:10012000190700081907000819070008190700082F
:100130001907000800000000000000000000000097
:100140000000000000000000000000001907000887
:1001500019070008190700081907000819070008FF
:10016000190700081907000800000000000000003F
:10017000000000000000000000000000000000007F
:100180000000000019070008000000000000000047
:040190001907000843
:1001940010B5054C237833B9044B13B10448AFF3BD
:1001A40000800123237010BD6C00002000000000BB
:1001B4006407000808B5034B1BB103490348AFF3B8
:1001C400008008BD000000007000002064070008E3
:1001D40080B483B000AF0346FB71084B1B68FA7907
:1001E400012101FA02F21146044A0B43136000BFD5
:1001F4000C37BD465DF8047B704700BF30380240C1
:1002040090B482B000AF0446084611461A4623460D
:10021400FB710346BB710B467B7113463B71FA7944
:10022400564913469B001344DB000B441B681968B2
:10023400BB795B00032202FA03F3DB431C46FA7921
:100244004E4813469B001344DB0003441B6801EA39
:1002540004021A60FA79494913469B001344DB00EF
:100264000B441B6819687A79BB795B0002FA03F3C3
:100274001C46FA79414813469B001344DB000344AF
:100284001B6841EA04021A60FA793C4913469B0050
:100294001344DB000B4404331B681968BB79012247
:1002A40002FA03F3DB431C46FA79344813469B00F5
:1002B4001344DB00034404331B6801EA04021A609C
:1002C400FA792E4913469B001344DB000B44043394
:1002D4001B6819683B7903F00102BB7902FA03F346
:1002E4001C46FA79254813469B001344DB0003445B
:1002F40004331B6841EA04021A60FA791F49134661
:100304009B001344DB000B440C331B681968BB7956
:100314005B00032202FA03F3DB431C46FA79174815
:1003240013469B001344DB0003440C331B6801EAAF
:1003340004021A60FA79114913469B001344DB0046
:100344000B440C331B6819683B795B1003F0030200
:10035400BB795B0002FA03F31C46FA79074813469B
:100364009B001344DB0003440C331B6841EA040282
:100374001A6000BF0837BD4690BC704700000020DB
:1003840090B484B000AF0346FB710B46BB711346B7
:100394007B71FA792C4913469B001344DB000B4410
:1003A4001B681B68BA795200032101FA02F21A4051
:1003B400BB795B0022FA03F3012B3DD17B79002B3F
:1003C4001BD0FA79204913469B001344DB000B44ED
:1003D40014331B681968BB79012202FA03F31C4623
:1003E400FA79194813469B001344DB000344143381
:1003F4001B6841EA04021A601BE0FA7912491346A9
:100404009B001344DB000B4414331B681968BB794D
:10041400012202FA03F3DB431C46FA790A48134625
:100424009B001344DB00034414331B6801EA0402F9
:100434001A600023FB7301E00123FB73FB7B184666
:100444001037BD4690BC70470000002080B485B0D2
:1004540000AF03460A46FB711346BB710023FB73CE
:10046400FA790C4913469B001344DB000B44103308
:100474001B681B68BA79012101FA02F21A40BB79A0
:1004840022FA03F3FB73FB7B18461437BD465DF871
:10049400047B70470000002080B582B000AF0120CB
:1004A400FFF796FE00237B6009E07B68D9B2002346
:1004B40001220120FFF7A4FE7B6801337B607B6887
:1004C400022BF2DD03233B6009E03B68D9B202232F
:1004D40000220120FFF794FE3B6801333B603B6838
:1004E400062BF2DD00BF00BF0837BD4680BD00000B
:1004F40080B400AF044B01221A70044B1B781846D9
:10050400BD465DF8047B70475C0000208800002035
:1005140080B582B000AF264B1B78012B44D1002359
:100524007B603EE07B68DBB2002219460120FFF7C6
:1005340027FF03233B6027E03B68DBB21946012019
:10054400FFF784FF0346002B1BD142F2107000F02A
:1005540035F83B68DBB219460120FFF777FF034605
:10056400002B0ED13B68033B12497A6892000A447F
:1005740013441A78104B1A700D4B00221A7000F0B5
:1005840053F83B6801333B603B68062BD4DD7B6842
:10059400DBB2012219460120FFF7F2FE7B6801332A
:1005A4007B607B68022BBDDD00BF0837BD4680BD84
:1005B4005C000020500000208800002080B485B03A
:1005C40000AF78600023FB6002E0FB680133FB604E
:1005D4007B68FA689A42F8D300BF00BF1437BD465F
:1005E4005DF8047B704780B582B000AF0020FFF750
:1005F400EFFD00237B6009E07B68D9B20023012270
:100604000020FFF7FDFD7B6801337B607B68062BD0
:10061400F2DD0223002207210020FFF7F1FDFFF79E
:100624003BFFFFF775FFFCE780B500AFFFF760FF06
:1006340003461A46044B1A70034B1B78184600F005
:1006440005F800BF80BD00BF8900002080B584B0DC
:1006540000AF0346FB710023FB6016E0FB68D9B2D0
:10066400FB790E4AD35C18460122FB6802FA03F3B5
:1006740000EA0302FB6842FA03F3DBB21A460020E5
:10068400FFF77EFEFB680133FB60FB68062BE5DDAC
:1006940000BF00BF1037BD4680BD00BF6000002012
:1006A40080B400AF064BD3F88830054A43F4700396
:1006B400C2F8883000BFBD465DF8047B704700BFB8
:1006C40000ED00E0DFF834D00D480E490E4A002357
:1006D40002E0D458C4500433C4188C42F9D30B4AF2
:1006E4000B4C002301E013600432A242FBD3FFF75A
:1006F400D7FF00F011F8FFF776FF704700000120E4
:10070400000000206C000020840700086C0000201A
:100714008C000020FEE7000070B50D4D0D4C641BED
:10072400A4100026A64209D10B4D0C4C00F018F879
:10073400641BA4100026A64205D170BD55F8043BE5
:1007440098470136EEE755F8043B98470136F2E73F
:100754007C0700087C0700087C0700088007000865
:10076400F8B500BFF8BC08BC9E467047F8B500BF9A
:08077400F8BC08BC9E4670476A
:04077C00B9010008B7
:0407800095010008D7
:100784000000024004000240080002400C00024045
:100794001000024014000240180002401C000240F5
:1007A40020000240240002400004024004040240ED
:1007B400080402400C0402401004024014040240E5
:1007C400180402401C040240200402402404024095
:1007D4000104072A0205080003060923010000009A
:0C07E4003F065B4F666D7D077F6F0000D5
:04000005080006C920
:00000001FF
