:020000040800F2
:1000000000000120F5060008450700084507000824
:1000100045070008450700084507000800000000E4
:10002000000000000000000000000000450700087C
:1000300045070008000000004507000845070008C4
:100040004507000845070008450700084507000860
:100050004507000845070008450700084507000850
:100060004507000845070008450700084507000840
:100070004507000845070008450700084507000830
:100080004507000845070008450700080000000074
:10009000000000000000000000000000450700080C
:1000A0004507000845070008450700084507000800
:1000B00045070008450700084507000845070008F0
:1000C00045070008450700084507000845070008E0
:1000D0004507000845070008450700080000000024
:1000E0004507000845070008450700080000000014
:1000F00000000000000000000000000045070008AC
:1001000000000000450700084507000845070008F3
:1001100000000000000000000000000000000000DF
:10012000450700084507000845070008450700087F
:10013000450700080000000000000000000000006B
:10014000000000000000000000000000450700085B
:10015000450700084507000845070008450700084F
:1001600045070008450700080000000000000000E7
:10017000000000000000000000000000000000007F
:10018000000000004507000800000000000000001B
:040190004507000817
:1001940010B5054C237833B9044B13B10448AFF3BD
:1001A40000800123237010BD7000002000000000B7
:1001B4009007000808B5034B1BB103490348AFF38C
:1001C400008008BD000000007400002090070008B3
:1001D40080B483B000AF0346FB71094B1B681A68F7
:1001E400FB79012101FA03F31946054B1B680A4305
:1001F4001A6000BF0C37BD465DF8047B704700BF32
:100204005000002090B482B000AF04460846114666
:100214001A462346FB710346BB710B467B7113469A
:100224003B71FA79564913469B001344DB000B4497
:100234001B681968BB795B00032202FA03F3DB43F2
:100244001C46FA794E4813469B001344DB000344D2
:100254001B6801EA04021A60FA79494913469B00B3
:100264001344DB000B441B6819687A79BB795B0083
:1002740002FA03F31C46FA79414813469B001344DF
:10028400DB0003441B6841EA04021A60FA793C4922
:1002940013469B001344DB000B4404331B681968AA
:1002A400BB79012202FA03F3DB431C46FA79344892
:1002B40013469B001344DB00034404331B6801EA28
:1002C40004021A60FA792E4913469B001344DB009A
:1002D4000B4404331B6819683B7903F00102BB79B2
:1002E40002FA03F31C46FA79254813469B0013448B
:1002F400DB00034404331B6841EA04021A60FA7900
:100304001F4913469B001344DB000B440C331B684A
:100314001968BB795B00032202FA03F3DB431C4632
:10032400FA79174813469B001344DB0003440C334B
:100334001B6801EA04021A60FA79114913469B000A
:100344001344DB000B440C331B6819683B795B10C6
:1003540003F00302BB795B0002FA03F31C46FA794B
:10036400074813469B001344DB0003440C331B680B
:1003740041EA04021A6000BF0837BD4690BC7047CA
:100384000000002090B484B000AF0346FB710B461C
:10039400BB7113467B71FA792C4913469B001344B5
:1003A400DB000B441B681B68BA795200032101FA75
:1003B40002F21A40BB795B0022FA03F3012B3DD110
:1003C4007B79002B1BD0FA79204913469B001344F8
:1003D400DB000B4414331B681968BB79012202FA51
:1003E40003F31C46FA79194813469B001344DB00B7
:1003F400034414331B6841EA04021A601BE0FA79CF
:10040400124913469B001344DB000B4414331B684E
:100414001968BB79012202FA03F3DB431C46FA791B
:100424000A4813469B001344DB00034414331B683F
:1004340001EA04021A600023FB7301E00123FB7349
:10044400FB7B18461037BD4690BC70470000002067
:1004540080B485B000AF03460A46FB711346BB71F6
:100464000023FB73FA790C4913469B001344DB0009
:100474000B4410331B681B68BA79012101FA02F29C
:100484001A40BB7922FA03F3FB73FB7B184614373B
:10049400BD465DF8047B70470000002080B582B043
:1004A40000AF0120FFF794FE00237B6009E07B6826
:1004B400D9B2002301220120FFF7A4FE7B68013397
:1004C4007B607B68022BF2DD03233B6009E03B6821
:1004D400D9B2022300220120FFF794FE3B680133C6
:1004E4003B603B68062BF2DD00BF00BF0837BD460A
:1004F40080BD000080B400AF074B1B78002B05D1F2
:10050400054B01221A70054B1B7800E000231846A6
:10051400BD465DF8047B7047540000208C00002029
:1005240080B582B000AF2B4B1B78002B01D100F0BB
:100534008DF8284B1B78012B48D100237B6042E0C7
:100544007B68DBB2002219460120FFF71BFF002362
:100554003B602BE03B68DBB20333DBB2194601207E
:10056400FFF776FF0346002B1DD17B68002B02D1D9
:100574003B68032B17D07B68022B02D13B68032B0B
:1005840011D0144B1B78012B0DD1134A7B689B00AF
:100594001A443B6813441A78104B1A700D4B00220E
:1005A4001A7000F053F83B6801333B603B68032B3F
:1005B400D0DD7B68DBB2012219460120FFF7E2FEA1
:1005C4007B6801337B607B68022BB9DD00BF083791
:1005D400BD4680BD54000020580000208C0000203F
:1005E40080B582B000AF0020FFF7F2FD00237B60EE
:1005F40009E07B68D9B2002301220020FFF702FE44
:100604007B6801337B607B68062BF2DD02230022CA
:1006140007210020FFF7F6FDFFF740FFFFF780FFFB
:10062400FCE780B485B000AF78600023FB6002E093
:10063400FB680133FB60FA687B689A42F8DB00BF11
:1006440000BF1437BD465DF8047B704780B500AF2A
:10065400FFF750FF03461A46044B1A70034B1B78EE
:10066400184600F005F800BF80BD00BF8D000020D3
:1006740080B584B000AF0346FB710023FB6016E035
:10068400FB68D9B2FB790F4AD35C18460122FB6898
:1006940002FA03F300EA0302FB6842FA03F3DBB253
:1006A4001A460020FFF76EFEFB680133FB60FB680F
:1006B400062BE5DD0448FFF7B4FF00BF1037BD4645
:1006C40080BD00BF64000020A086010080B400AF9C
:1006D400064BD3F88830054A43F47003C2F88830D7
:1006E40000BFBD465DF8047B704700BF00ED00E02D
:1006F400DFF834D00D480E490E4A002302E0D458E6
:10070400C4500433C4188C42F9D30B4A0B4C002355
:1007140001E013600432A242FBD3FFF7D7FF00F0DD
:1007240011F8FFF75DFF7047000001200000002072
:1007340070000020B0070008700000209000002026
:10074400FEE7000070B50D4D0D4C641BA41000268F
:10075400A64209D10B4D0C4C00F018F8641BA410F0
:100764000026A64205D170BD55F8043B98470136D2
:10077400EEE755F8043B98470136F2E7A80700086E
:10078400A8070008A8070008AC070008F8B500BFD0
:10079400F8BC08BC9E467047F8B500BFF8BC08BC5E
:0407A4009E467047B6
:0407A800B90100088B
:0407AC0095010008AB
:1007B0000000024004000240080002400C00024019
:1007C0001000024014000240180002401C000240C9
:1007D00020000240240002400004024004040240C1
:1007E000080402400C0402401004024014040240B9
:1007F000180402401C040240200402402404024069
:1008000030380240010000000104072A02050800F8
:10081000030609233F065B4F666D7D077F6F00006F
:04000005080006F5F4
:00000001FF
